{
  "_format": "hh-sol-artifact-1",
  "contractName": "Domain",
  "sourceName": "contracts/Domain.sol",
  "abi": [
    {
      "inputs": [
        {
          "internalType": "string",
          "name": "_tld",
          "type": "string"
        }
      ],
      "stateMutability": "payable",
      "type": "constructor"
    },
    {
      "anonymous": false,
      "inputs": [
        {
          "indexed": true,
          "internalType": "address",
          "name": "owner",
          "type": "address"
        },
        {
          "indexed": true,
          "internalType": "address",
          "name": "approved",
          "type": "address"
        },
        {
          "indexed": true,
          "internalType": "uint256",
          "name": "tokenId",
          "type": "uint256"
        }
      ],
      "name": "Approval",
      "type": "event"
    },
    {
      "anonymous": false,
      "inputs": [
        {
          "indexed": true,
          "internalType": "address",
          "name": "owner",
          "type": "address"
        },
        {
          "indexed": true,
          "internalType": "address",
          "name": "operator",
          "type": "address"
        },
        {
          "indexed": false,
          "internalType": "bool",
          "name": "approved",
          "type": "bool"
        }
      ],
      "name": "ApprovalForAll",
      "type": "event"
    },
    {
      "anonymous": false,
      "inputs": [
        {
          "indexed": true,
          "internalType": "address",
          "name": "from",
          "type": "address"
        },
        {
          "indexed": true,
          "internalType": "address",
          "name": "to",
          "type": "address"
        },
        {
          "indexed": true,
          "internalType": "uint256",
          "name": "tokenId",
          "type": "uint256"
        }
      ],
      "name": "Transfer",
      "type": "event"
    },
    {
      "inputs": [
        {
          "internalType": "address",
          "name": "to",
          "type": "address"
        },
        {
          "internalType": "uint256",
          "name": "tokenId",
          "type": "uint256"
        }
      ],
      "name": "approve",
      "outputs": [],
      "stateMutability": "nonpayable",
      "type": "function"
    },
    {
      "inputs": [
        {
          "internalType": "address",
          "name": "owner",
          "type": "address"
        }
      ],
      "name": "balanceOf",
      "outputs": [
        {
          "internalType": "uint256",
          "name": "",
          "type": "uint256"
        }
      ],
      "stateMutability": "view",
      "type": "function"
    },
    {
      "inputs": [
        {
          "internalType": "string",
          "name": "name",
          "type": "string"
        }
      ],
      "name": "getAddress",
      "outputs": [
        {
          "internalType": "address",
          "name": "",
          "type": "address"
        }
      ],
      "stateMutability": "view",
      "type": "function"
    },
    {
      "inputs": [
        {
          "internalType": "uint256",
          "name": "tokenId",
          "type": "uint256"
        }
      ],
      "name": "getApproved",
      "outputs": [
        {
          "internalType": "address",
          "name": "",
          "type": "address"
        }
      ],
      "stateMutability": "view",
      "type": "function"
    },
    {
      "inputs": [
        {
          "internalType": "string",
          "name": "name",
          "type": "string"
        }
      ],
      "name": "getRecords",
      "outputs": [
        {
          "components": [
            {
              "internalType": "string",
              "name": "bio",
              "type": "string"
            },
            {
              "internalType": "uint256",
              "name": "start",
              "type": "uint256"
            },
            {
              "internalType": "uint256",
              "name": "period",
              "type": "uint256"
            },
            {
              "internalType": "string",
              "name": "twitter",
              "type": "string"
            },
            {
              "internalType": "uint256",
              "name": "tokenId",
              "type": "uint256"
            }
          ],
          "internalType": "struct Domain.Record",
          "name": "",
          "type": "tuple"
        }
      ],
      "stateMutability": "view",
      "type": "function"
    },
    {
      "inputs": [
        {
          "internalType": "address",
          "name": "owner",
          "type": "address"
        },
        {
          "internalType": "address",
          "name": "operator",
          "type": "address"
        }
      ],
      "name": "isApprovedForAll",
      "outputs": [
        {
          "internalType": "bool",
          "name": "",
          "type": "bool"
        }
      ],
      "stateMutability": "view",
      "type": "function"
    },
    {
      "inputs": [],
      "name": "name",
      "outputs": [
        {
          "internalType": "string",
          "name": "",
          "type": "string"
        }
      ],
      "stateMutability": "view",
      "type": "function"
    },
    {
      "inputs": [
        {
          "internalType": "uint256",
          "name": "tokenId",
          "type": "uint256"
        }
      ],
      "name": "ownerOf",
      "outputs": [
        {
          "internalType": "address",
          "name": "",
          "type": "address"
        }
      ],
      "stateMutability": "view",
      "type": "function"
    },
    {
      "inputs": [
        {
          "internalType": "string",
          "name": "name",
          "type": "string"
        }
      ],
      "name": "price",
      "outputs": [
        {
          "internalType": "uint256",
          "name": "cost",
          "type": "uint256"
        }
      ],
      "stateMutability": "pure",
      "type": "function"
    },
    {
      "inputs": [
        {
          "internalType": "string",
          "name": "name",
          "type": "string"
        },
        {
          "internalType": "string",
          "name": "tokenUri",
          "type": "string"
        }
      ],
      "name": "register",
      "outputs": [],
      "stateMutability": "payable",
      "type": "function"
    },
    {
      "inputs": [
        {
          "internalType": "address",
          "name": "from",
          "type": "address"
        },
        {
          "internalType": "address",
          "name": "to",
          "type": "address"
        },
        {
          "internalType": "uint256",
          "name": "tokenId",
          "type": "uint256"
        }
      ],
      "name": "safeTransferFrom",
      "outputs": [],
      "stateMutability": "nonpayable",
      "type": "function"
    },
    {
      "inputs": [
        {
          "internalType": "address",
          "name": "from",
          "type": "address"
        },
        {
          "internalType": "address",
          "name": "to",
          "type": "address"
        },
        {
          "internalType": "uint256",
          "name": "tokenId",
          "type": "uint256"
        },
        {
          "internalType": "bytes",
          "name": "_data",
          "type": "bytes"
        }
      ],
      "name": "safeTransferFrom",
      "outputs": [],
      "stateMutability": "nonpayable",
      "type": "function"
    },
    {
      "inputs": [
        {
          "internalType": "address",
          "name": "operator",
          "type": "address"
        },
        {
          "internalType": "bool",
          "name": "approved",
          "type": "bool"
        }
      ],
      "name": "setApprovalForAll",
      "outputs": [],
      "stateMutability": "nonpayable",
      "type": "function"
    },
    {
      "inputs": [
        {
          "internalType": "string",
          "name": "name",
          "type": "string"
        },
        {
          "internalType": "string",
          "name": "bio",
          "type": "string"
        },
        {
          "internalType": "uint256",
          "name": "period",
          "type": "uint256"
        },
        {
          "internalType": "string",
          "name": "twitter",
          "type": "string"
        }
      ],
      "name": "setRecords",
      "outputs": [],
      "stateMutability": "nonpayable",
      "type": "function"
    },
    {
      "inputs": [
        {
          "internalType": "bytes4",
          "name": "interfaceId",
          "type": "bytes4"
        }
      ],
      "name": "supportsInterface",
      "outputs": [
        {
          "internalType": "bool",
          "name": "",
          "type": "bool"
        }
      ],
      "stateMutability": "view",
      "type": "function"
    },
    {
      "inputs": [],
      "name": "symbol",
      "outputs": [
        {
          "internalType": "string",
          "name": "",
          "type": "string"
        }
      ],
      "stateMutability": "view",
      "type": "function"
    },
    {
      "inputs": [
        {
          "internalType": "uint256",
          "name": "tokenId",
          "type": "uint256"
        }
      ],
      "name": "tokenURI",
      "outputs": [
        {
          "internalType": "string",
          "name": "",
          "type": "string"
        }
      ],
      "stateMutability": "view",
      "type": "function"
    },
    {
      "inputs": [
        {
          "internalType": "address",
          "name": "from",
          "type": "address"
        },
        {
          "internalType": "address",
          "name": "to",
          "type": "address"
        },
        {
          "internalType": "uint256",
          "name": "tokenId",
          "type": "uint256"
        }
      ],
      "name": "transferFrom",
      "outputs": [],
      "stateMutability": "nonpayable",
      "type": "function"
    }
  ],
  "bytecode": "0x608060405260405162003bdc38038062003bdc83398181016040528101906200002991906200020b565b6040518060400160405280601581526020017f57656233204964656e74697479205365727669636500000000000000000000008152506040518060400160405280600381526020017f57495300000000000000000000000000000000000000000000000000000000008152508160009080519060200190620000ad929190620000e9565b508060019080519060200190620000c6929190620000e9565b5050508060099080519060200190620000e1929190620000e9565b5050620003c0565b828054620000f790620002e5565b90600052602060002090601f0160209004810192826200011b576000855562000167565b82601f106200013657805160ff191683800117855562000167565b8280016001018555821562000167579182015b828111156200016657825182559160200191906001019062000149565b5b5090506200017691906200017a565b5090565b5b80821115620001955760008160009055506001016200017b565b5090565b6000620001b0620001aa8462000279565b62000250565b905082815260208101848484011115620001c957600080fd5b620001d6848285620002af565b509392505050565b600082601f830112620001f057600080fd5b81516200020284826020860162000199565b91505092915050565b6000602082840312156200021e57600080fd5b600082015167ffffffffffffffff8111156200023957600080fd5b6200024784828501620001de565b91505092915050565b60006200025c6200026f565b90506200026a82826200031b565b919050565b6000604051905090565b600067ffffffffffffffff82111562000297576200029662000380565b5b620002a282620003af565b9050602081019050919050565b60005b83811015620002cf578082015181840152602081019050620002b2565b83811115620002df576000848401525b50505050565b60006002820490506001821680620002fe57607f821691505b6020821081141562000315576200031462000351565b5b50919050565b6200032682620003af565b810181811067ffffffffffffffff8211171562000348576200034762000380565b5b80604052505050565b7f4e487b7100000000000000000000000000000000000000000000000000000000600052602260045260246000fd5b7f4e487b7100000000000000000000000000000000000000000000000000000000600052604160045260246000fd5b6000601f19601f8301169050919050565b61380c80620003d06000396000f3fe6080604052600436106101095760003560e01c806386e80b7111610095578063bf40fac111610064578063bf40fac11461037e578063c46fa020146103bb578063c87b56dd146103e4578063e985e9c514610421578063fe2c61981461045e57610109565b806386e80b71146102c457806395d89b4114610301578063a22cb4651461032c578063b88d4fde1461035557610109565b806323b872dd116100dc57806323b872dd146101dc5780633ffbd47f1461020557806342842e0e146102215780636352211e1461024a57806370a082311461028757610109565b806301ffc9a71461010e57806306fdde031461014b578063081812fc14610176578063095ea7b3146101b3575b600080fd5b34801561011a57600080fd5b5061013560048036038101906101309190612419565b61049b565b6040516101429190612b1c565b60405180910390f35b34801561015757600080fd5b5061016061057d565b60405161016d9190612b37565b60405180910390f35b34801561018257600080fd5b5061019d600480360381019061019891906125d9565b61060f565b6040516101aa9190612ab5565b60405180910390f35b3480156101bf57600080fd5b506101da60048036038101906101d591906123dd565b610694565b005b3480156101e857600080fd5b5061020360048036038101906101fe91906122d7565b6107ac565b005b61021f600480360381019061021a9190612569565b61080c565b005b34801561022d57600080fd5b50610248600480360381019061024391906122d7565b6108de565b005b34801561025657600080fd5b50610271600480360381019061026c91906125d9565b6108fe565b60405161027e9190612ab5565b60405180910390f35b34801561029357600080fd5b506102ae60048036038101906102a99190612272565b6109b0565b6040516102bb9190612dfb565b60405180910390f35b3480156102d057600080fd5b506102eb60048036038101906102e6919061246b565b610a68565b6040516102f89190612dd9565b60405180910390f35b34801561030d57600080fd5b50610316610c4a565b6040516103239190612b37565b60405180910390f35b34801561033857600080fd5b50610353600480360381019061034e91906123a1565b610cdc565b005b34801561036157600080fd5b5061037c60048036038101906103779190612326565b610cf2565b005b34801561038a57600080fd5b506103a560048036038101906103a0919061246b565b610d54565b6040516103b29190612ab5565b60405180910390f35b3480156103c757600080fd5b506103e260048036038101906103dd91906124b0565b610e4e565b005b3480156103f057600080fd5b5061040b600480360381019061040691906125d9565b611067565b6040516104189190612b37565b60405180910390f35b34801561042d57600080fd5b506104486004803603810190610443919061229b565b6111b9565b6040516104559190612b1c565b60405180910390f35b34801561046a57600080fd5b506104856004803603810190610480919061246b565b61124d565b6040516104929190612dfb565b60405180910390f35b60007f80ac58cd000000000000000000000000000000000000000000000000000000007bffffffffffffffffffffffffffffffffffffffffffffffffffffffff1916827bffffffffffffffffffffffffffffffffffffffffffffffffffffffff1916148061056657507f5b5e139f000000000000000000000000000000000000000000000000000000007bffffffffffffffffffffffffffffffffffffffffffffffffffffffff1916827bffffffffffffffffffffffffffffffffffffffffffffffffffffffff1916145b806105765750610575826112d7565b5b9050919050565b60606000805461058c90613062565b80601f01602080910402602001604051908101604052809291908181526020018280546105b890613062565b80156106055780601f106105da57610100808354040283529160200191610605565b820191906000526020600020905b8154815290600101906020018083116105e857829003601f168201915b5050505050905090565b600061061a82611341565b610659576040517f08c379a000000000000000000000000000000000000000000000000000000000815260040161065090612d39565b60405180910390fd5b6004600083815260200190815260200160002060009054906101000a900473ffffffffffffffffffffffffffffffffffffffff169050919050565b600061069f826108fe565b90508073ffffffffffffffffffffffffffffffffffffffff168373ffffffffffffffffffffffffffffffffffffffff161415610710576040517f08c379a000000000000000000000000000000000000000000000000000000000815260040161070790612d99565b60405180910390fd5b8073ffffffffffffffffffffffffffffffffffffffff1661072f6113ad565b73ffffffffffffffffffffffffffffffffffffffff16148061075e575061075d816107586113ad565b6111b9565b5b61079d576040517f08c379a000000000000000000000000000000000000000000000000000000000815260040161079490612c79565b60405180910390fd5b6107a783836113b5565b505050565b6107bd6107b76113ad565b8261146e565b6107fc576040517f08c379a00000000000000000000000000000000000000000000000000000000081526004016107f390612db9565b60405180910390fd5b61080783838361154c565b505050565b610816838361124d565b3414610857576040517f08c379a000000000000000000000000000000000000000000000000000000000815260040161084e90612d79565b60405180910390fd5b600061086360076117b3565b905061086f33826117c1565b610879818361199b565b336008858560405161088c929190612a78565b908152602001604051809103902060006101000a81548173ffffffffffffffffffffffffffffffffffffffff021916908373ffffffffffffffffffffffffffffffffffffffff16021790555050505050565b6108f983838360405180602001604052806000815250610cf2565b505050565b6000806002600084815260200190815260200160002060009054906101000a900473ffffffffffffffffffffffffffffffffffffffff169050600073ffffffffffffffffffffffffffffffffffffffff168173ffffffffffffffffffffffffffffffffffffffff1614156109a7576040517f08c379a000000000000000000000000000000000000000000000000000000000815260040161099e90612cb9565b60405180910390fd5b80915050919050565b60008073ffffffffffffffffffffffffffffffffffffffff168273ffffffffffffffffffffffffffffffffffffffff161415610a21576040517f08c379a0000000000000000000000000000000000000000000000000000000008152600401610a1890612c99565b60405180910390fd5b600360008373ffffffffffffffffffffffffffffffffffffffff1673ffffffffffffffffffffffffffffffffffffffff168152602001908152602001600020549050919050565b610a7061201d565b600060088484604051610a84929190612a78565b908152602001604051809103902060009054906101000a900473ffffffffffffffffffffffffffffffffffffffff169050600a60008273ffffffffffffffffffffffffffffffffffffffff1673ffffffffffffffffffffffffffffffffffffffff1681526020019081526020016000206040518060a0016040529081600082018054610b0f90613062565b80601f0160208091040260200160405190810160405280929190818152602001828054610b3b90613062565b8015610b885780601f10610b5d57610100808354040283529160200191610b88565b820191906000526020600020905b815481529060010190602001808311610b6b57829003601f168201915b505050505081526020016001820154815260200160028201548152602001600382018054610bb590613062565b80601f0160208091040260200160405190810160405280929190818152602001828054610be190613062565b8015610c2e5780601f10610c0357610100808354040283529160200191610c2e565b820191906000526020600020905b815481529060010190602001808311610c1157829003601f168201915b5050505050815260200160048201548152505091505092915050565b606060018054610c5990613062565b80601f0160208091040260200160405190810160405280929190818152602001828054610c8590613062565b8015610cd25780601f10610ca757610100808354040283529160200191610cd2565b820191906000526020600020905b815481529060010190602001808311610cb557829003601f168201915b5050505050905090565b610cee610ce76113ad565b8383611a0f565b5050565b610d03610cfd6113ad565b8361146e565b610d42576040517f08c379a0000000000000000000000000000000000000000000000000000000008152600401610d3990612db9565b60405180910390fd5b610d4e84848484611b7c565b50505050565b60008073ffffffffffffffffffffffffffffffffffffffff1660088484604051610d7f929190612a78565b908152602001604051809103902060009054906101000a900473ffffffffffffffffffffffffffffffffffffffff1673ffffffffffffffffffffffffffffffffffffffff161415610e05576040517f08c379a0000000000000000000000000000000000000000000000000000000008152600401610dfc90612b59565b60405180910390fd5b60088383604051610e17929190612a78565b908152602001604051809103902060009054906101000a900473ffffffffffffffffffffffffffffffffffffffff16905092915050565b3373ffffffffffffffffffffffffffffffffffffffff1660088888604051610e77929190612a78565b908152602001604051809103902060009054906101000a900473ffffffffffffffffffffffffffffffffffffffff1673ffffffffffffffffffffffffffffffffffffffff1614610efc576040517f08c379a0000000000000000000000000000000000000000000000000000000008152600401610ef390612c59565b60405180910390fd5b610f066007611bd8565b60006040518060a0016040528087878080601f016020809104026020016040519081016040528093929190818152602001838380828437600081840152601f19601f82011690508083019250505050505050815260200142815260200185815260200184848080601f016020809104026020016040519081016040528093929190818152602001838380828437600081840152601f19601f820116905080830192505050505050508152602001610fbd60076117b3565b815250905080600a60003373ffffffffffffffffffffffffffffffffffffffff1673ffffffffffffffffffffffffffffffffffffffff168152602001908152602001600020600082015181600001908051906020019061101e92919061204c565b506020820151816001015560408201518160020155606082015181600301908051906020019061104f92919061204c565b50608082015181600401559050505050505050505050565b606061107282611341565b6110b1576040517f08c379a00000000000000000000000000000000000000000000000000000000081526004016110a890612d19565b60405180910390fd5b60006006600084815260200190815260200160002080546110d190613062565b80601f01602080910402602001604051908101604052809291908181526020018280546110fd90613062565b801561114a5780601f1061111f5761010080835404028352916020019161114a565b820191906000526020600020905b81548152906001019060200180831161112d57829003601f168201915b50505050509050600061115b611bee565b90506000815114156111715781925050506111b4565b6000825111156111a657808260405160200161118e929190612a91565b604051602081830303815290604052925050506111b4565b6111af84611c05565b925050505b919050565b6000600560008473ffffffffffffffffffffffffffffffffffffffff1673ffffffffffffffffffffffffffffffffffffffff16815260200190815260200160002060008373ffffffffffffffffffffffffffffffffffffffff1673ffffffffffffffffffffffffffffffffffffffff16815260200190815260200160002060009054906101000a900460ff16905092915050565b600080838390501415611295576040517f08c379a000000000000000000000000000000000000000000000000000000000815260040161128c90612b79565b60405180910390fd5b6000838390509050600381116112b657674563918244f400009150506112d1565b600481106112cf576753444835ec5800009150506112d1565b505b92915050565b60007f01ffc9a7000000000000000000000000000000000000000000000000000000007bffffffffffffffffffffffffffffffffffffffffffffffffffffffff1916827bffffffffffffffffffffffffffffffffffffffffffffffffffffffff1916149050919050565b60008073ffffffffffffffffffffffffffffffffffffffff166002600084815260200190815260200160002060009054906101000a900473ffffffffffffffffffffffffffffffffffffffff1673ffffffffffffffffffffffffffffffffffffffff1614159050919050565b600033905090565b816004600083815260200190815260200160002060006101000a81548173ffffffffffffffffffffffffffffffffffffffff021916908373ffffffffffffffffffffffffffffffffffffffff160217905550808273ffffffffffffffffffffffffffffffffffffffff16611428836108fe565b73ffffffffffffffffffffffffffffffffffffffff167f8c5be1e5ebec7d5bd14f71427d1e84f3dd0314c0f7b2291e5b200ac8c7c3b92560405160405180910390a45050565b600061147982611341565b6114b8576040517f08c379a00000000000000000000000000000000000000000000000000000000081526004016114af90612c39565b60405180910390fd5b60006114c3836108fe565b90508073ffffffffffffffffffffffffffffffffffffffff168473ffffffffffffffffffffffffffffffffffffffff161480611505575061150481856111b9565b5b8061154357508373ffffffffffffffffffffffffffffffffffffffff1661152b8461060f565b73ffffffffffffffffffffffffffffffffffffffff16145b91505092915050565b8273ffffffffffffffffffffffffffffffffffffffff1661156c826108fe565b73ffffffffffffffffffffffffffffffffffffffff16146115c2576040517f08c379a00000000000000000000000000000000000000000000000000000000081526004016115b990612bb9565b60405180910390fd5b600073ffffffffffffffffffffffffffffffffffffffff168273ffffffffffffffffffffffffffffffffffffffff161415611632576040517f08c379a000000000000000000000000000000000000000000000000000000000815260040161162990612bf9565b60405180910390fd5b61163d838383611cac565b6116486000826113b5565b6001600360008573ffffffffffffffffffffffffffffffffffffffff1673ffffffffffffffffffffffffffffffffffffffff16815260200190815260200160002060008282546116989190612f78565b925050819055506001600360008473ffffffffffffffffffffffffffffffffffffffff1673ffffffffffffffffffffffffffffffffffffffff16815260200190815260200160002060008282546116ef9190612ef1565b92505081905550816002600083815260200190815260200160002060006101000a81548173ffffffffffffffffffffffffffffffffffffffff021916908373ffffffffffffffffffffffffffffffffffffffff160217905550808273ffffffffffffffffffffffffffffffffffffffff168473ffffffffffffffffffffffffffffffffffffffff167fddf252ad1be2c89b69c2b068fc378daa952ba7f163c4a11628f55a4df523b3ef60405160405180910390a46117ae838383611cb1565b505050565b600081600001549050919050565b600073ffffffffffffffffffffffffffffffffffffffff168273ffffffffffffffffffffffffffffffffffffffff161415611831576040517f08c379a000000000000000000000000000000000000000000000000000000000815260040161182890612cf9565b60405180910390fd5b61183a81611341565b1561187a576040517f08c379a000000000000000000000000000000000000000000000000000000000815260040161187190612bd9565b60405180910390fd5b61188660008383611cac565b6001600360008473ffffffffffffffffffffffffffffffffffffffff1673ffffffffffffffffffffffffffffffffffffffff16815260200190815260200160002060008282546118d69190612ef1565b92505081905550816002600083815260200190815260200160002060006101000a81548173ffffffffffffffffffffffffffffffffffffffff021916908373ffffffffffffffffffffffffffffffffffffffff160217905550808273ffffffffffffffffffffffffffffffffffffffff16600073ffffffffffffffffffffffffffffffffffffffff167fddf252ad1be2c89b69c2b068fc378daa952ba7f163c4a11628f55a4df523b3ef60405160405180910390a461199760008383611cb1565b5050565b6119a482611341565b6119e3576040517f08c379a00000000000000000000000000000000000000000000000000000000081526004016119da90612cd9565b60405180910390fd5b80600660008481526020019081526020016000209080519060200190611a0a92919061204c565b505050565b8173ffffffffffffffffffffffffffffffffffffffff168373ffffffffffffffffffffffffffffffffffffffff161415611a7e576040517f08c379a0000000000000000000000000000000000000000000000000000000008152600401611a7590612c19565b60405180910390fd5b80600560008573ffffffffffffffffffffffffffffffffffffffff1673ffffffffffffffffffffffffffffffffffffffff16815260200190815260200160002060008473ffffffffffffffffffffffffffffffffffffffff1673ffffffffffffffffffffffffffffffffffffffff16815260200190815260200160002060006101000a81548160ff0219169083151502179055508173ffffffffffffffffffffffffffffffffffffffff168373ffffffffffffffffffffffffffffffffffffffff167f17307eab39ab6107e8899845ad3d59bd9653f200f220920489ca2b5937696c3183604051611b6f9190612b1c565b60405180910390a3505050565b611b8784848461154c565b611b9384848484611cb6565b611bd2576040517f08c379a0000000000000000000000000000000000000000000000000000000008152600401611bc990612b99565b60405180910390fd5b50505050565b6001816000016000828254019250508190555050565b606060405180602001604052806000815250905090565b6060611c1082611341565b611c4f576040517f08c379a0000000000000000000000000000000000000000000000000000000008152600401611c4690612d59565b60405180910390fd5b6000611c59611bee565b90506000815111611c795760405180602001604052806000815250611ca4565b80611c8384611e4d565b604051602001611c94929190612a91565b6040516020818303038152906040525b915050919050565b505050565b505050565b6000611cd78473ffffffffffffffffffffffffffffffffffffffff16611ffa565b15611e40578373ffffffffffffffffffffffffffffffffffffffff1663150b7a02611d006113ad565b8786866040518563ffffffff1660e01b8152600401611d229493929190612ad0565b602060405180830381600087803b158015611d3c57600080fd5b505af1925050508015611d6d57506040513d601f19601f82011682018060405250810190611d6a9190612442565b60015b611df0573d8060008114611d9d576040519150601f19603f3d011682016040523d82523d6000602084013e611da2565b606091505b50600081511415611de8576040517f08c379a0000000000000000000000000000000000000000000000000000000008152600401611ddf90612b99565b60405180910390fd5b805181602001fd5b63150b7a0260e01b7bffffffffffffffffffffffffffffffffffffffffffffffffffffffff1916817bffffffffffffffffffffffffffffffffffffffffffffffffffffffff191614915050611e45565b600190505b949350505050565b60606000821415611e95576040518060400160405280600181526020017f30000000000000000000000000000000000000000000000000000000000000008152509050611ff5565b600082905060005b60008214611ec7578080611eb0906130c5565b915050600a82611ec09190612f47565b9150611e9d565b60008167ffffffffffffffff811115611f09577f4e487b7100000000000000000000000000000000000000000000000000000000600052604160045260246000fd5b6040519080825280601f01601f191660200182016040528015611f3b5781602001600182028036833780820191505090505b5090505b60008514611fee57600182611f549190612f78565b9150600a85611f63919061310e565b6030611f6f9190612ef1565b60f81b818381518110611fab577f4e487b7100000000000000000000000000000000000000000000000000000000600052603260045260246000fd5b60200101907effffffffffffffffffffffffffffffffffffffffffffffffffffffffffffff1916908160001a905350600a85611fe79190612f47565b9450611f3f565b8093505050505b919050565b6000808273ffffffffffffffffffffffffffffffffffffffff163b119050919050565b6040518060a0016040528060608152602001600081526020016000815260200160608152602001600081525090565b82805461205890613062565b90600052602060002090601f01602090048101928261207a57600085556120c1565b82601f1061209357805160ff19168380011785556120c1565b828001600101855582156120c1579182015b828111156120c05782518255916020019190600101906120a5565b5b5090506120ce91906120d2565b5090565b5b808211156120eb5760008160009055506001016120d3565b5090565b60006121026120fd84612e3b565b612e16565b90508281526020810184848401111561211a57600080fd5b612125848285613020565b509392505050565b600061214061213b84612e6c565b612e16565b90508281526020810184848401111561215857600080fd5b612163848285613020565b509392505050565b60008135905061217a8161377a565b92915050565b60008135905061218f81613791565b92915050565b6000813590506121a4816137a8565b92915050565b6000815190506121b9816137a8565b92915050565b600082601f8301126121d057600080fd5b81356121e08482602086016120ef565b91505092915050565b60008083601f8401126121fb57600080fd5b8235905067ffffffffffffffff81111561221457600080fd5b60208301915083600182028301111561222c57600080fd5b9250929050565b600082601f83011261224457600080fd5b813561225484826020860161212d565b91505092915050565b60008135905061226c816137bf565b92915050565b60006020828403121561228457600080fd5b60006122928482850161216b565b91505092915050565b600080604083850312156122ae57600080fd5b60006122bc8582860161216b565b92505060206122cd8582860161216b565b9150509250929050565b6000806000606084860312156122ec57600080fd5b60006122fa8682870161216b565b935050602061230b8682870161216b565b925050604061231c8682870161225d565b9150509250925092565b6000806000806080858703121561233c57600080fd5b600061234a8782880161216b565b945050602061235b8782880161216b565b935050604061236c8782880161225d565b925050606085013567ffffffffffffffff81111561238957600080fd5b612395878288016121bf565b91505092959194509250565b600080604083850312156123b457600080fd5b60006123c28582860161216b565b92505060206123d385828601612180565b9150509250929050565b600080604083850312156123f057600080fd5b60006123fe8582860161216b565b925050602061240f8582860161225d565b9150509250929050565b60006020828403121561242b57600080fd5b600061243984828501612195565b91505092915050565b60006020828403121561245457600080fd5b6000612462848285016121aa565b91505092915050565b6000806020838503121561247e57600080fd5b600083013567ffffffffffffffff81111561249857600080fd5b6124a4858286016121e9565b92509250509250929050565b60008060008060008060006080888a0312156124cb57600080fd5b600088013567ffffffffffffffff8111156124e557600080fd5b6124f18a828b016121e9565b9750975050602088013567ffffffffffffffff81111561251057600080fd5b61251c8a828b016121e9565b9550955050604061252f8a828b0161225d565b935050606088013567ffffffffffffffff81111561254c57600080fd5b6125588a828b016121e9565b925092505092959891949750929550565b60008060006040848603121561257e57600080fd5b600084013567ffffffffffffffff81111561259857600080fd5b6125a4868287016121e9565b9350935050602084013567ffffffffffffffff8111156125c357600080fd5b6125cf86828701612233565b9150509250925092565b6000602082840312156125eb57600080fd5b60006125f98482850161225d565b91505092915050565b61260b81612fac565b82525050565b61261a81612fbe565b82525050565b600061262b82612e9d565b6126358185612eb3565b935061264581856020860161302f565b61264e816131fb565b840191505092915050565b60006126658385612ee6565b9350612672838584613020565b82840190509392505050565b600061268982612ea8565b6126938185612ec4565b93506126a381856020860161302f565b6126ac816131fb565b840191505092915050565b60006126c282612ea8565b6126cc8185612ed5565b93506126dc81856020860161302f565b6126e5816131fb565b840191505092915050565b60006126fb82612ea8565b6127058185612ee6565b935061271581856020860161302f565b80840191505092915050565b600061272e602283612ed5565b91506127398261320c565b604082019050919050565b6000612751601783612ed5565b915061275c8261325b565b602082019050919050565b6000612774603283612ed5565b915061277f82613284565b604082019050919050565b6000612797602583612ed5565b91506127a2826132d3565b604082019050919050565b60006127ba601c83612ed5565b91506127c582613322565b602082019050919050565b60006127dd602483612ed5565b91506127e88261334b565b604082019050919050565b6000612800601983612ed5565b915061280b8261339a565b602082019050919050565b6000612823602c83612ed5565b915061282e826133c3565b604082019050919050565b6000612846602b83612ed5565b915061285182613412565b604082019050919050565b6000612869603883612ed5565b915061287482613461565b604082019050919050565b600061288c602a83612ed5565b9150612897826134b0565b604082019050919050565b60006128af602983612ed5565b91506128ba826134ff565b604082019050919050565b60006128d2602e83612ed5565b91506128dd8261354e565b604082019050919050565b60006128f5602083612ed5565b91506129008261359d565b602082019050919050565b6000612918603183612ed5565b9150612923826135c6565b604082019050919050565b600061293b602c83612ed5565b915061294682613615565b604082019050919050565b600061295e602f83612ed5565b915061296982613664565b604082019050919050565b6000612981601283612ed5565b915061298c826136b3565b602082019050919050565b60006129a4602183612ed5565b91506129af826136dc565b604082019050919050565b60006129c7603183612ed5565b91506129d28261372b565b604082019050919050565b600060a08301600083015184820360008601526129fa828261267e565b9150506020830151612a0f6020860182612a5a565b506040830151612a226040860182612a5a565b5060608301518482036060860152612a3a828261267e565b9150506080830151612a4f6080860182612a5a565b508091505092915050565b612a6381613016565b82525050565b612a7281613016565b82525050565b6000612a85828486612659565b91508190509392505050565b6000612a9d82856126f0565b9150612aa982846126f0565b91508190509392505050565b6000602082019050612aca6000830184612602565b92915050565b6000608082019050612ae56000830187612602565b612af26020830186612602565b612aff6040830185612a69565b8181036060830152612b118184612620565b905095945050505050565b6000602082019050612b316000830184612611565b92915050565b60006020820190508181036000830152612b5181846126b7565b905092915050565b60006020820190508181036000830152612b7281612721565b9050919050565b60006020820190508181036000830152612b9281612744565b9050919050565b60006020820190508181036000830152612bb281612767565b9050919050565b60006020820190508181036000830152612bd28161278a565b9050919050565b60006020820190508181036000830152612bf2816127ad565b9050919050565b60006020820190508181036000830152612c12816127d0565b9050919050565b60006020820190508181036000830152612c32816127f3565b9050919050565b60006020820190508181036000830152612c5281612816565b9050919050565b60006020820190508181036000830152612c7281612839565b9050919050565b60006020820190508181036000830152612c928161285c565b9050919050565b60006020820190508181036000830152612cb28161287f565b9050919050565b60006020820190508181036000830152612cd2816128a2565b9050919050565b60006020820190508181036000830152612cf2816128c5565b9050919050565b60006020820190508181036000830152612d12816128e8565b9050919050565b60006020820190508181036000830152612d328161290b565b9050919050565b60006020820190508181036000830152612d528161292e565b9050919050565b60006020820190508181036000830152612d7281612951565b9050919050565b60006020820190508181036000830152612d9281612974565b9050919050565b60006020820190508181036000830152612db281612997565b9050919050565b60006020820190508181036000830152612dd2816129ba565b9050919050565b60006020820190508181036000830152612df381846129dd565b905092915050565b6000602082019050612e106000830184612a69565b92915050565b6000612e20612e31565b9050612e2c8282613094565b919050565b6000604051905090565b600067ffffffffffffffff821115612e5657612e556131cc565b5b612e5f826131fb565b9050602081019050919050565b600067ffffffffffffffff821115612e8757612e866131cc565b5b612e90826131fb565b9050602081019050919050565b600081519050919050565b600081519050919050565b600082825260208201905092915050565b600082825260208201905092915050565b600082825260208201905092915050565b600081905092915050565b6000612efc82613016565b9150612f0783613016565b9250827fffffffffffffffffffffffffffffffffffffffffffffffffffffffffffffffff03821115612f3c57612f3b61313f565b5b828201905092915050565b6000612f5282613016565b9150612f5d83613016565b925082612f6d57612f6c61316e565b5b828204905092915050565b6000612f8382613016565b9150612f8e83613016565b925082821015612fa157612fa061313f565b5b828203905092915050565b6000612fb782612ff6565b9050919050565b60008115159050919050565b60007fffffffff0000000000000000000000000000000000000000000000000000000082169050919050565b600073ffffffffffffffffffffffffffffffffffffffff82169050919050565b6000819050919050565b82818337600083830152505050565b60005b8381101561304d578082015181840152602081019050613032565b8381111561305c576000848401525b50505050565b6000600282049050600182168061307a57607f821691505b6020821081141561308e5761308d61319d565b5b50919050565b61309d826131fb565b810181811067ffffffffffffffff821117156130bc576130bb6131cc565b5b80604052505050565b60006130d082613016565b91507fffffffffffffffffffffffffffffffffffffffffffffffffffffffffffffffff8214156131035761310261313f565b5b600182019050919050565b600061311982613016565b915061312483613016565b9250826131345761313361316e565b5b828206905092915050565b7f4e487b7100000000000000000000000000000000000000000000000000000000600052601160045260246000fd5b7f4e487b7100000000000000000000000000000000000000000000000000000000600052601260045260246000fd5b7f4e487b7100000000000000000000000000000000000000000000000000000000600052602260045260246000fd5b7f4e487b7100000000000000000000000000000000000000000000000000000000600052604160045260246000fd5b6000601f19601f8301169050919050565b7f596f7520646f6e277420686176652061207265676973746572656420646f6d6160008201527f696e000000000000000000000000000000000000000000000000000000000000602082015250565b7f596f752073656e64206120656d707479206c6973742121000000000000000000600082015250565b7f4552433732313a207472616e7366657220746f206e6f6e20455243373231526560008201527f63656976657220696d706c656d656e7465720000000000000000000000000000602082015250565b7f4552433732313a207472616e736665722066726f6d20696e636f72726563742060008201527f6f776e6572000000000000000000000000000000000000000000000000000000602082015250565b7f4552433732313a20746f6b656e20616c7265616479206d696e74656400000000600082015250565b7f4552433732313a207472616e7366657220746f20746865207a65726f2061646460008201527f7265737300000000000000000000000000000000000000000000000000000000602082015250565b7f4552433732313a20617070726f766520746f2063616c6c657200000000000000600082015250565b7f4552433732313a206f70657261746f7220717565727920666f72206e6f6e657860008201527f697374656e7420746f6b656e0000000000000000000000000000000000000000602082015250565b7f596f7520646f6e2774206861766520617574686f7269747920746f207365742060008201527f746865207265636f726473000000000000000000000000000000000000000000602082015250565b7f4552433732313a20617070726f76652063616c6c6572206973206e6f74206f7760008201527f6e6572206e6f7220617070726f76656420666f7220616c6c0000000000000000602082015250565b7f4552433732313a2062616c616e636520717565727920666f7220746865207a6560008201527f726f206164647265737300000000000000000000000000000000000000000000602082015250565b7f4552433732313a206f776e657220717565727920666f72206e6f6e657869737460008201527f656e7420746f6b656e0000000000000000000000000000000000000000000000602082015250565b7f45524337323155524953746f726167653a2055524920736574206f66206e6f6e60008201527f6578697374656e7420746f6b656e000000000000000000000000000000000000602082015250565b7f4552433732313a206d696e7420746f20746865207a65726f2061646472657373600082015250565b7f45524337323155524953746f726167653a2055524920717565727920666f722060008201527f6e6f6e6578697374656e7420746f6b656e000000000000000000000000000000602082015250565b7f4552433732313a20617070726f76656420717565727920666f72206e6f6e657860008201527f697374656e7420746f6b656e0000000000000000000000000000000000000000602082015250565b7f4552433732314d657461646174613a2055524920717565727920666f72206e6f60008201527f6e6578697374656e7420746f6b656e0000000000000000000000000000000000602082015250565b7f4e6f7420656e6f756768206d6174696321210000000000000000000000000000600082015250565b7f4552433732313a20617070726f76616c20746f2063757272656e74206f776e6560008201527f7200000000000000000000000000000000000000000000000000000000000000602082015250565b7f4552433732313a207472616e736665722063616c6c6572206973206e6f74206f60008201527f776e6572206e6f7220617070726f766564000000000000000000000000000000602082015250565b61378381612fac565b811461378e57600080fd5b50565b61379a81612fbe565b81146137a557600080fd5b50565b6137b181612fca565b81146137bc57600080fd5b50565b6137c881613016565b81146137d357600080fd5b5056fea2646970667358221220eda1ae39e7099de6a1be381a8510cd7183e940529bd1483b5de33e46728920ee64736f6c63430008040033",
  "linkReferences": {},
  "deployedLinkReferences": {}
}